{
  "_format": "hh-sol-artifact-1",
  "contractName": "PriceConsumerV3",
  "sourceName": "contracts/PriceConsumerV3.sol",
  "abi": [
    {
      "inputs": [],
      "stateMutability": "nonpayable",
      "type": "constructor"
    },
    {
      "inputs": [],
      "name": "getLatestPrice",
      "outputs": [
        {
          "internalType": "int256",
          "name": "",
          "type": "int256"
        }
      ],
      "stateMutability": "view",
      "type": "function"
    },
    {
      "inputs": [],
      "name": "storeLatestPrice",
      "outputs": [],
      "stateMutability": "nonpayable",
      "type": "function"
    },
    {
      "inputs": [],
      "name": "storedPrice",
      "outputs": [
        {
          "internalType": "int256",
          "name": "",
          "type": "int256"
        }
      ],
      "stateMutability": "view",
      "type": "function"
    }
  ],
  "bytecode": "0x608060405234801561001057600080fd5b50600080546001600160a01b031916738a753747a1fa494ec906ce90e9f37563a8af630e17905561019e806100466000396000f3fe608060405234801561001057600080fd5b50600436106100415760003560e01c806353d10acb146100465780638e15f473146100505780639ed301281461006a575b600080fd5b61004e610073565b005b610058610080565b60405190815260200160405180910390f35b61005860015481565b61007b610080565b600155565b6000805460408051633fabe5a360e21b8152905183926001600160a01b03169163feaf968c9160048083019260a09291908290030181865afa1580156100ca573d6000803e3d6000fd5b505050506040513d601f19601f820116820180604052508101906100ee9190610118565b509195945050505050565b805169ffffffffffffffffffff8116811461011357600080fd5b919050565b600080600080600060a0868803121561013057600080fd5b610139866100f9565b945060208601519350604086015192506060860151915061015c608087016100f9565b9050929550929590935056fea264697066735822122002151f0c5e0e7e02f6603ddcd7c6fb82c6cb6687e4e8fa364ad0214ee67a416964736f6c63430008180033",
  "linkReferences": {},
  "deployedLinkReferences": {}
}